:100000000C9435000C94A8010C945D000C945D00D8
:100010000C945D000C945D000C945D000C94F30155
:100020000C945D000C945D000C945D000C945D00DC
:100030000C945D000C945D000C945D000C945D00CC
:100040000C945D000C945D000C945D000C945D00BC
:100050000C945D000C945D000C945D000C945D00AC
:100060000C945D000C945D00070211241FBECFEFBD
:10007000D8E0DEBFCDBF11E0A0E0B1E0E4E0F8E001
:1000800002C005900D92A839B107D9F721E0A8E97F
:10009000B1E001C01D92A33BB207E1F710E0C5E358
:1000A000D0E004C02197FE010E94BE02C433D107F4
:1000B000C9F70E9411020C9400040C9400009C01EA
:1000C00040919B0190919C01842F6AE070E00E9416
:1000D0007D02220F331F8217930730F440FD02C0C8
:1000E0004C9803C04C9A01C05C9880919B01909100
:1000F0009C01019690939C0180939B010895089523
:10010000089508950895089508950895FC01828141
:1001100093810E945F0087E090E00895CF93DF9382
:10012000EC018A819B810E945F002C813D814E8180
:100130005F81A8EEB3E00E94B30261327F4B824040
:10014000910518F487E090E002C086E090E0DF912E
:10015000CF910895FC012481358146815781A8EE15
:10016000B3E00E94B302693873418105910518F428
:1001700082E090E0089583E090E00895CF93DF93CC
:100180001F92CDB7DEB78BB1898389818270898355
:10019000298130E035952795298381E0232B09F4C7
:1001A00080E00F90DF91CF910895CF93DF931F925E
:1001B000CDB7DEB78BB1898389818270898329812C
:1001C00030E035952795298381E0232B09F480E0E1
:1001D0000F90DF91CF910895CF93DF93EC01888149
:1001E00099810E94D500882319F081E090E015C024
:1001F0002C813D814E815F81A8EEB3E00E94B30265
:1002000061327F4B8240910568F0888199810E941C
:10021000D500882351F082E090E09B838A8386E0BA
:1002200090E005C085E090E002C081E090E0DF91C1
:10023000CF910895CF93DF93EC01888199810E943B
:10024000BE00882319F083E090E006C08881998180
:100250000E94D50081E090E09B838A8386E090E055
:10026000DF91CF910895CF93DF93EC01888199813D
:100270000E94BE00882319F083E090E015C08881B9
:1002800099810E94D500811114C02C813D814E813D
:100290005F81A8EEB3E00E94B3026138794A8340DF
:1002A000910550F081E090E09B838A8386E090E0A6
:1002B00005C084E090E002C083E090E0DF91CF9140
:1002C0000895CF93DF93EC01888199810E94BE004D
:1002D000882319F083E090E008C0888199810E940A
:1002E000D500882339F082E090E09B838A8386E002
:1002F00090E002C081E090E0DF91CF910895CF932C
:10030000DF93EC011C821D821E821F8289E090E037
:100310000E94D302FC0183E0808384E0818385E036
:10032000828386E0838387E0848315821682178226
:100330001086E89AA9E6B0E08C9182608C93F983EC
:10034000E8831B821A8281E090E0DF91CF910895CB
:100350001F920F920FB60F9211242F933F934F933A
:100360005F936F937F938F939F93AF93BF93CF933D
:10037000DF93EF93FF93EDE9F1E0C081D1818D81AF
:100380009E81AF81B8850196A11DB11D8D839E838D
:10039000AF83B887648175818681978125E030E0DD
:1003A00040E050E00E9491026C5F7F4F660F771F24
:1003B000FB01E356FE4F80819181019691838083FA
:1003C000FF91EF91DF91CF91BF91AF919F918F916D
:1003D0007F916F915F914F913F912F910F900FBE41
:1003E0000F901F9018951F920F920FB60F92112425
:1003F0008F9380919A018F5F80939A0181E080931F
:1004000000018F910F900FBE0F901F9018952598A7
:1004100024988AE0E5EAF1E0DF011D928A95E9F788
:100420000895F8941092B0001092B1001092B200AA
:100430008CE38093B3008091B00082608093B00021
:100440008091B10087608093B100809170008260DC
:100450008093700078941092990110929801F8940A
:1004600090919A018091000178949111F8CF88239E
:10047000B1F310920001C0919801D091990180913F
:10048000A1019091A201A091A301B091A4010196B4
:10049000A11DB11D8093A1019093A201A093A3017E
:1004A000B093A401FE01EE0FFF1FE957FE4F01902C
:1004B000F081E02D8DE991E009958C0193E0CC0F5E
:1004C000DD1F9A95E1F7C00FD11FCC0FDD1FC95F6B
:1004D000DE4FE881F981309759F01092A101109216
:1004E000A2011092A3011092A4018DE991E0099557
:1004F0001093990100939801B2CFAA1BBB1B51E145
:1005000007C0AA1FBB1FA617B70710F0A61BB70B83
:10051000881F991F5A95A9F780959095BC01CD0128
:100520000895A1E21A2EAA1BBB1BFD010DC0AA1F34
:10053000BB1FEE1FFF1FA217B307E407F50720F04C
:10054000A21BB30BE40BF50B661F771F881F991FC7
:100550001A9469F760957095809590959B01AC0110
:10056000BD01CF0108950E94C402A59F900DB49FC4
:10057000900DA49F800D911D11240895EE0FFF1F73
:100580000590F491E02D0994A29FB001B39FC001A2
:10059000A39F700D811D1124911DB29F700D811DAF
:1005A0001124911D0895CF93DF938230910510F4AB
:1005B00082E090E0E091B101F091B20120E030E002
:1005C000C0E0D0E0309711F14081518148175907C0
:1005D000C0F04817590761F482819381209719F080
:1005E0009B838A832BC09093B2018093B10126C074
:1005F0002115310519F04217530718F49A01BE016D
:10060000DF01EF010280F381E02DDCCF2115310500
:1006100009F1281B390B2430310590F412968D9185
:100620009C9113976115710521F0FB0193838283DF
:1006300004C09093B2018093B101FD01329644C091
:10064000FD01E20FF31F81939193225031092D9305
:100650003C933AC02091AF013091B001232B41F47B
:1006600020910301309104013093B0012093AF0138
:1006700020910101309102012115310541F42DB77E
:100680003EB74091050150910601241B350BE091C6
:10069000AF01F091B001E217F307A0F42E1B3F0B5E
:1006A0002817390778F0AC014E5F5F4F24173507E4
:1006B00048F04E0F5F1F5093B0014093AF018193FC
:1006C000919302C0E0E0F0E0CF01DF91CF91089577
:1006D0000F931F93CF93DF93009709F48CC0FC0115
:1006E0003297138212820091B1011091B20101156B
:1006F000110581F420813181820F931F2091AF0178
:100700003091B0012817390779F5F093B001E093E3
:10071000AF0171C0D80140E050E0AE17BF0750F400
:1007200012962D913C911397AD012115310509F1D8
:10073000D901F3CF9D01DA01338322836081718176
:10074000860F971F8217930769F4EC01288139817E
:10075000260F371F2E5F3F4F318320838A819B8175
:1007600093838283452B29F4F093B201E093B10186
:1007700042C01396FC93EE931297ED014991599163
:100780009E01240F351FE217F30771F480819181D8
:10079000840F951F029611969C938E93828193816C
:1007A00013969C938E931297E0E0F0E0D801129696
:1007B0008D919C911397009719F0F8018C01F6CF59
:1007C0008D919C9198012E5F3F4F820F931F209136
:1007D000AF013091B0012817390769F4309729F437
:1007E0001092B2011092B10102C0138212821093D2
:1007F000B0010093AF01DF91CF911F910F91089548
:04080000F894FFCF9A
:10080400010000B30180000000850000000000002A
:100814000000000000000000000000840000000050
:1008240000000000007F00000000000000830000C2
:1008340000000080000000000000000000000082B2
:100844000000008000000000000000000000000024
:10085400008100800000000000850000000000000E
:100864000000008000000000000000000000000004
:1008740000000000007F00000000000000000000F5
:10088400000000000000007F016101AA0033011A8A
:0808940001EC008E008600005B
:00000001FF
