:100000000C9435000C9447030C945D000C945D0037
:100010000C945D000C945D000C945D000C949203B4
:100020000C945D000C945D000C945D000C945D00DC
:100030000C945D000C945D000C945D000C945D00CC
:100040000C945D000C945D000C9415030C94EF026D
:100050000C945D000C945D000C945D000C945D00AC
:100060000C945D000C945D00A60311241FBECFEF1D
:10007000D8E0DEBFCDBF12E0A0E0B1E0EAE2FCE0F4
:1000800002C005900D92A637B107D9F723E0A6E785
:10009000B2E001C01D92AE32B207E1F710E0C5E355
:1000A000D0E004C02197FE010E94CC04C433D107E4
:1000B000C9F70E94DC030C9413060C940000CF9245
:1000C000DF92EF92FF920F931F93CF93DF936C0118
:1000D0007A018B01C0E0D0E0CE15DF0589F0D801B0
:1000E0006D918D01D601ED91FC910190F081E02D93
:1000F000C6010995892B11F47E0102C02196ECCF2F
:10010000C701DF91CF911F910F91FF90EF90DF908A
:10011000CF900895089580E090E00895FC01538DFC
:10012000448D252F30E0842F90E0821B930B5417D1
:1001300010F0CF96089501970895FC01918D828D5E
:10014000981761F0828DDF01A80FB11D5D968C912B
:10015000928D9F5F9F73928F90E008958FEF9FEF36
:100160000895FC01918D828D981731F0828DE80FF2
:10017000F11D858D90E008958FEF9FEF0895FC01AC
:10018000918D228D892F90E0805C9F4F821B910979
:100190008F7399270895FC01848DDF01A80FB11D8D
:1001A000A35ABF4F2C91848D90E001968F739927AD
:1001B000848FA689B7892C93A089B1898C9180649A
:1001C0008C93938D848D981306C00288F389E02D5B
:1001D00080818F7D80830895EF92FF920F931F930C
:1001E000CF93DF93EC0181E0888F9B8D8C8D9813EA
:1001F00005C0E889F989808185FD24C0F62E0B8D24
:1002000010E00F5F1F4F0F731127E02E8C8DE81247
:100210000CC00FB607FCFACFE889F989808185FF09
:10022000F5CFCE010E94CB00F1CF8B8DFE01E80F00
:10023000F11DE35AFF4FF0820B8FEA89FB89808121
:10024000806207C0EE89FF896083E889F98980812F
:100250008064808381E090E0DF91CF911F910F91C6
:10026000FF90EF900895CF93DF93EC01888D882362
:10027000C9F0EA89FB89808185FD05C0A889B98913
:100280008C9186FD0FC00FB607FCF5CF808185FFEE
:10029000F2CFA889B9898C9185FFEDCFCE010E945C
:1002A000CB00E7CFDF91CF9108959C014091790277
:1002B00090917A02842F6AE070E00E948B04220FF2
:1002C000331F8217930730F440FD02C04C9803C0DF
:1002D0004C9A01C05C988091790290917A020196C3
:1002E00090937A028093790208950895089508956D
:1002F0000895CF93DF931F92CDB7DEB78BB189837B
:10030000898182708983298130E0359527952983F9
:1003100081E0232B09F480E00F90DF91CF910895C5
:10032000CF93DF931F92CDB7DEB78BB189838981DD
:1003300082708983298130E035952795298381E072
:10034000232B09F480E00F90DF91CF910895CF9394
:10035000DF93EC01888199810E947901882319F04B
:1003600083E090E006C0888199810E94900181E03D
:1003700090E09B838A8386E090E0DF91CF9108959F
:10038000CF93DF93009779F0FC0101900020E9F70B
:100390003197AF01481B590BBC018BE792E00E94DB
:1003A0005F00EC0102C0C0E0D0E042E050E069EA4A
:1003B00071E08BE792E00E945F008C0F9D1FDF9140
:1003C000CF9108958CEA91E00C94C0018DEB91E0FF
:1003D0000C94C0018FEC91E00C94C001CF93DF939B
:1003E000EC0182EE91E00E94C0018A819B810E9413
:1003F000550187E090E0DF91CF910895CF93DF938F
:10040000EC018EEE91E00E94C0018A819B810E94E6
:1004100055012C813D814E815F81A8EEB3E00E94A1
:10042000C10461327F4B8240910518F487E090E06F
:1004300002C086E090E0DF91CF910895CF93DF93E3
:10044000EC0183E092E00E94C001888199810E94C2
:100450009001882319F081E090E015C02C813D8146
:100460004E815F81A8EEB3E00E94C10461327F4BF0
:100470008240910568F0888199810E9490018823CB
:1004800051F082E090E09B838A8386E090E005C093
:1004900085E090E002C081E090E0DF91CF91089587
:1004A000CF93DF93EC0182E192E00E94C00188814A
:1004B00099810E947901882319F083E090E015C0AA
:1004C000888199810E949001811114C02C813D8105
:1004D0004E815F81A8EEB3E00E94C1046138794A81
:1004E0008340910550F081E090E09B838A8386E011
:1004F00090E005C084E090E002C083E090E0DF91EE
:10050000CF910895CF93DF93EC018EE192E00E94AA
:10051000C0012C813D814E815F81A8EEB3E00E9435
:10052000C104693873418105910518F482E090E0B7
:1005300002C083E090E0DF91CF910895CF93DF93E5
:10054000EC018BE292E00E94C001888199810E94B7
:100550007901882319F083E090E008C088819981AF
:100560000E949001882339F082E090E09B838A8387
:1005700086E090E002C081E090E0DF91CF910895A5
:100580000E940E06CF93DF93EC0189E392E00E9474
:10059000C0011C821D821E821F8289E090E00E94A1
:1005A000E104FC0183E0808384E0818385E0828331
:1005B00086E0838387E08483158216821782108603
:1005C000E89AA9E6B0E08C9182608C93F983E88385
:1005D0001B821A8281E090E0DF91CF9108951F92F3
:1005E0000F920FB60F9211242F933F934F935F9367
:1005F0006F937F938F939F93AF93BF93EF93FF93EB
:100600008BE792E00E94CB00FF91EF91BF91AF91F9
:100610009F918F917F916F915F914F913F912F911A
:100620000F900FBE0F901F9018951F920F920FB64C
:100630000F9211242F938F939F93EF93FF93E09149
:100640008B02F0918C028081E0919102F0919202F4
:1006500082FD12C09081809194028F5F8F732091F0
:100660009502821751F0E0919402F0E0E558FD4FB9
:10067000958F8093940201C08081FF91EF919F91AB
:100680008F912F910F900FBE0F901F9018951F9272
:100690000F920FB60F9211242F933F934F935F93B6
:1006A0006F937F938F939F93AF93BF93CF93DF937A
:1006B000EF93FF93E8E1F3E0C081D1818D819E81CA
:1006C000AF81B8850196A11DB11D8D839E83AF8337
:1006D000B887648175818681978125E030E040E0AC
:1006E00050E00E949F046C5F7F4F660F771FFB01F5
:1006F000E85EFC4F80819181019691838083FF9118
:10070000EF91DF91CF91BF91AF919F918F917F91A9
:100710006F915F914F913F912F910F900FBE0F906E
:100720001F9018951F920F920FB60F9211248F935E
:10073000809178028F5F8093780281E0809300013E
:100740008F910F900FBE0F901F901895EBE7F2E07E
:100750001382128288EE93E0A0E0B0E08483958358
:10076000A683B7838BE991E09183808385EC90E049
:100770009587848784EC90E09787868780EC90E06B
:10078000918B808B81EC90E0938B828B82EC90E05C
:10079000958B848B86EC90E0978B868B118E128ED6
:1007A000138E148E259824988AE0E0E2F3E0DF01AE
:1007B0001D928A95E9F70895E0918B02F0918C02E1
:1007C00082E08083E0918702F09188021082E091BC
:1007D0008902F0918A0280E1808310929302E09175
:1007E0008F02F091900286E08083E0918D02F0917B
:1007F0008E02808180618083E0918D02F0918E0273
:10080000808188608083E0918D02F0918E028081EA
:1008100080688083E0918D02F0918E0280818F7DCF
:100820008083F8941092B0001092B1001092B20040
:100830008CE38093B3008091B00082608093B0001D
:100840008091B10087608093B100809170008260D8
:100850008093700078941092770210927602F89448
:10086000909178028091000178949111F8CF8823BB
:10087000B1F310920001C0917602D091770287E423
:1008800092E00E94C00185E592E00E94C001809143
:100890001C0390911D03A0911E03B0911F030196AC
:1008A000A11DB11D80931C0390931D03A0931E03F3
:1008B000B0931F03FE01EE0FFF1FE957FE4F01909B
:1008C000F081E02D88E193E009958C0193E0CC0F55
:1008D000DD1F9A95E1F7C00FD11FCC0FDD1FC95F57
:1008E000DE4F0990D881C02D209781F083E692E0F9
:1008F0000E94C00110921C0310921D0310921E034F
:1009000010921F0388E193E0FE010995109377028E
:1009100000937602A4CFAA1BBB1B51E107C0AA1FFC
:10092000BB1FA617B70710F0A61BB70B881F991F90
:100930005A95A9F780959095BC01CD010895A1E243
:100940001A2EAA1BBB1BFD010DC0AA1FBB1FEE1F49
:10095000FF1FA217B307E407F50720F0A21BB30B94
:10096000E40BF50B661F771F881F991F1A9469F710
:1009700060957095809590959B01AC01BD01CF016C
:1009800008950E94D204A59F900DB49F900DA49F3E
:10099000800D911D11240895EE0FFF1F0590F49115
:1009A000E02D0994A29FB001B39FC001A39F700DD9
:1009B000811D1124911DB29F700D811D1124911D67
:1009C0000895CF93DF938230910510F482E090E098
:1009D000E0912C03F0912D0320E030E0C0E0D0E066
:1009E000309711F14081518148175907C0F04817DD
:1009F000590761F482819381209719F09B838A8340
:100A00002BC090932D0380932C0326C02115310514
:100A100019F04217530718F49A01BE01DF01EF01E4
:100A20000280F381E02DDCCF2115310509F1281B6F
:100A3000390B2430310590F412968D919C911397C7
:100A40006115710521F0FB019383828304C09093AB
:100A50002D0380932C03FD01329644C0FD01E20F6B
:100A6000F31F81939193225031092D933C933AC007
:100A700020912A0330912B03232B41F42091030171
:100A80003091040130932B0320932A03209101011C
:100A9000309102012115310541F42DB73EB7409147
:100AA000050150910601241B350BE0912A03F091BA
:100AB0002B03E217F307A0F42E1B3F0B281739076F
:100AC00078F0AC014E5F5F4F2417350748F04E0FAA
:100AD0005F1F50932B0340932A038193919302C08D
:100AE000E0E0F0E0CF01DF91CF9108950F931F93E5
:100AF000CF93DF93009709F48CC0FC0132971382E7
:100B0000128200912C0310912D030115110581F41F
:100B100020813181820F931F20912A0330912B0372
:100B20002817390779F5F0932B03E0932A0371C056
:100B3000D80140E050E0AE17BF0750F412962D9157
:100B40003C911397AD012115310509F1D901F3CF7E
:100B50009D01DA013383228360817181860F971FA3
:100B60008217930769F4EC0128813981260F371F1A
:100B70002E5F3F4F318320838A819B8193838283C1
:100B8000452B29F4F0932D03E0932C0342C01396D8
:100B9000FC93EE931297ED01499159919E01240F18
:100BA000351FE217F30771F480819181840F951F3F
:100BB000029611969C938E938281938113969C93B7
:100BC0008E931297E0E0F0E0D80112968D919C91FF
:100BD0001397009719F0F8018C01F6CF8D919C9135
:100BE00098012E5F3F4F820F931F20912A0330916F
:100BF0002B032817390769F4309729F410922D0335
:100C000010922C0302C01382128210932B030093C4
:100C10002A03DF91CF911F910F91089581E090E019
:0A0C2000F8940C941306F894FFCF2B
:100C2A000100002E0380000000EA0100000000001D
:100C3A000000000000000000000000E601000000C3
:100C4A0000000000007501000000000000E2010041
:100C5A00000000760100000000000000000000789B
:100C6A000100007601000000000000000000000002
:100C7A00007701760100000000EA01000000000090
:100C8A0000000076010000000000000000000000E3
:100C9A0000000000007501000000000000000000D4
:100CAA0000000000000000C2029E0282025002A759
:100CBA00011E02FE01EE0100000000EC005F008E42
:100CCA00003301BF009D00B1000D0A005374617228
:100CDA0074207472616E736974696F6E0057617201
:100CEA006D7570207472616E736974696F6E0053EA
:100CFA0074616E646279207472616E736974696F6B
:100D0A006E004572726F7220737461746500457269
:100D1A00726F7220636F6F6C646F776E2073746189
:100D2A00746500436F6F6C646F776E2073746174BF
:100D3A00650053746172742073746174650057613D
:100D4A00726D7570207374617465005374616E649A
:100D5A00627920737461746500496E697469616CA3
:100D6A00207374617465002020202052756E2073F0
:100D7A0074617465004F6E20616C6C2073746174C9
:100D8A006573004F6E20616C6C207472616E7369BA
:060D9A0074696F6E730026
:00000001FF
